:1000000055C000006EC000006CC000006AC0000057
:1000100068C0000066C0000064C0000062C000004C
:1000200060C000005EC000005CC000005AC000005C
:1000300058C0000056C0000054C0000052C000006C
:1000400050C000004EC000004CC000004AC000007C
:1000500048C0000046C0000044C0000043C000008B
:1000600040C000003EC000003CC000003AC000009C
:1000700038C0000036C0000034C0000032C00000AC
:1000800030C000002EC000002CC000002AC00000BC
:1000900028C0000026C0000024C0000022C00000CC
:1000A00020C000001EC000001CC0000011241FBEA4
:1000B000CFEFDAE0DEBFCDBF21E0A4E0B1E001C0C8
:1000C0001D92A630B207E1F711E0A0E0B1E0E0E553
:1000D000F4E002C005900D92A430B107D9F7A0D08A
:1000E000B5C18ECF1F920F920FB60F9211248F932E
:1000F0009F938091040190910501019690930501D1
:100100008093040186E086BD9F918F910F900FBE72
:100110000F901F90189584B1806F84B98FEF85B9C7
:1001200087B117B88AB11AB8819A899A089514BC10
:1001300083E085BD86E086BD81E080936E000895F2
:1001400010920501109204012091040130910501E3
:1001500028173907C8F30895A4E0B0E0E1EBF0E018
:1001600088C09C0180E4898390E19A838B8380E836
:100170008C832115310559F486B190E080959095D6
:1001800026E0969587952A95E1F7817011C099B17F
:10019000FE01E20FF31F2181422F50E0292F30E0B2
:1001A000209530952423352381E0232B09F480E02A
:1001B0002496E2E07AC00F931F93CF93DF93DBD0B6
:1001C00064E070E033D08C0140E050E021E030E0AA
:1001D0004017510729F0220F331F4F5F5F4FF8CFB1
:1001E00020952295207F25B9C8EED3E0C801B4DF61
:1001F000882339F081B311BA84E690E0A1DF899AAF
:1002000005C081E090E09CDF219781F78FEF85B9F1
:100210008CE291E095DFDF91CF911F910F910895CE
:10022000F89479DF84DF7894C6DFFECF97FB072E42
:1002300016F4009406D077FD08D042D007FC05D014
:100240003EF4909581959F4F0895709561957F4FED
:1002500008952F923F924F925F926F927F928F926A
:100260009F92AF92BF92CF92DF92EF92FF920F9345
:100270001F93CF93DF93CDB7DEB7CA1BDB0B0FB64F
:10028000F894DEBF0FBECDBF09942A88398848880C
:100290005F846E847D848C849B84AA84B984C884A2
:1002A000DF80EE80FD800C811B81AA81B981CE0F99
:1002B000D11D0FB6F894DEBF0FBECDBFED0108957E
:1002C000AA1BBB1B51E107C0AA1FBB1FA617B7077C
:1002D00010F0A61BB70B881F991F5A95A9F7809598
:1002E0009095BC01CD0108958F929F92AF92BF92DD
:1002F000CF92DF92EF92FF92CF93DF93EC01688170
:1003000079818A819B81611571058105910521F4AF
:1003100064E279ED8BE597E02DE133EF41E050E0C9
:1003200038D049015A019B01AC01A7EAB1E44DD094
:100330006B017C01ACEEB4EFA501940152D0DC015D
:10034000CB018C0D9D1DAE1DBF1DB7FF03C00197D6
:10035000A109B04888839983AA83BB839F77DF91E3
:10036000CF91FF90EF90DF90CF90BF90AF909F9094
:100370008F900895B9CF80E091E0B6CFA0E0B0E0D3
:100380008093000190930101A0930201B0930301B7
:100390000895052E97FB16F400940FD057FD05D055
:1003A00024D007FC02D046F408C050954095309503
:1003B00021953F4F4F4F5F4F0895909580957095D1
:1003C00061957F4F8F4F9F4F089531D0A59F900D1E
:1003D000B49F900DA49F800D911D11240895B7FF27
:1003E000F4CFF3DF821B930B0895A1E21A2EAA1B10
:1003F000BB1BFD010DC0AA1FBB1FEE1FFF1FA217D5
:10040000B307E407F50720F0A21BB30BE40BF50BD1
:10041000661F771F881F991F1A9469F7609570955A
:10042000809590959B01AC01BD01CF010895A29FDD
:10043000B001B39FC001A39F700D811D1124911DB8
:10044000B29F700D811D1124911D0895F894FFCF66
:0404500001000000A7
:00000001FF
